:020000003028A6
:10000800FF00030E8301A5000A08A4008A010C1D45
:100018001128A00A0319A10A0C1124088A00250E28
:080028008300FF0E7F0E0900AA
:0E0030008312031323088A00220882000800AE
:10003E0018208A110A128000840AA20A0319A30A40
:08004E00F003031D1F28080048
:0A005600013083120313880608002E
:1000600083120313A001A1018316031789018801DC
:1000700003138801831288018B170B1783160C1545
:100080008312171097141715971100302106031DBE
:100090004B2801302006031D50282B20A001A10170
:0400A0004528512876
:04400E00F22F000786
:00000001FF
