:020000003028A6
:10000800FF00030E8301A5000A08A4008A010D1C45
:100018001128A00A0319A10A0D1024088A00250E28
:080028008300FF0E7F0E0900AA
:0E0030008312031323088A00220882000800AE
:10003E0018208A110A128000840AA20A0319A30A40
:08004E00F003031D1F28080048
:0A005600013083120313880608002E
:1000600083120313A001A101831688018312880162
:100070008B170B1783160D1483121D149D101D155D
:100080009D1100302106031D472801302006031D65
:0C0090004C282B20A001A10141284D2884
:04400E00F22F000786
:00000001FF
