:020000003228A4
:10000800FF00030E8301A5000A08A4008A010B1C47
:100018001128A00A0319A10A0B1024088A00250E2A
:080028008300FF0E7F0E0900AA
:0E0030008312031323088A00220882000800AE
:10003E0018208A110A128000840AA20A0319A30A40
:08004E00F003031D1F28080048
:0E0056000830831203138806A001A1010800E0
:1000640083120313A001A1018316031789018801D8
:1000740003138801FF308600831288018B178B15C8
:1000840083169616003083122106031D4B28013077
:0C0094002006031D4E282B2044284F2876
:04400E00F22F000786
:00000001FF
