:020000003228A4
:10000800FF00030E8301A4000A08A5008A018B1CC7
:100018001128A00A0319A10A8B1025088A00240EAA
:080028008300FF0E7F0E0900AA
:0E0030008312031323088A00220882000800AE
:10003E0018208A110A128000840AA20A0319A30A40
:08004E00F003031D1F28080048
:0E0056000830831203138806A001A1010800E0
:1000640083120313A001A1018316031789018801D8
:1000740003138801FF308600831288018B170B1647
:1000840000302106031D482801302006031D4B289B
:060094002B2042284C283D
:04400E00F22F000786
:00000001FF
