:020000005F2877
:10000800FF00030E8301A4000A08A5008A010B1D46
:100018000E280B1125088A00240E8300FF0E7F0E80
:020028000900CD
:0E002A008312031323088A00220882000800B4
:1000380015208A110A128000840AA20A0319A30A49
:08004800F003031D1C28080051
:100050000030831203132106031D302801302006CF
:10006000031D34280630880000302106031D3A287D
:1000700002302006031D3E285B3088000030210638
:10008000031D442803302006031D48284F308800F4
:1000900000302106031D4E2804302006031D52287F
:1000A0006630880000302106031D582805302006E0
:0E00B000031D5E286D308800A001A10108002C
:1000BE0083120313A001A10183160317890188017E
:1000CE0003138801831288018B178B168316011672
:1000DE0081160230831281000108023A031D7C282A
:0E00EE002820A00A0319A10A810173287D2889
:04400E00F22F000786
:00000001FF
