:02000000642872
:10000800FF00030E8301A6000A08A7008A018C1CC2
:100018001328A20A0319A30A643091008C10270838
:0C0028008A00260E8300FF0E7F0E0900E8
:0E0034008312031325088A00240882000800A6
:100042001A208A110A128000840AA40A0319A50A36
:08005200F003031D2128080042
:10005A000030831203132106031D352801302006C0
:10006A00031D39280630880000302106031D3F2869
:10007A0002302006031D43285B3088000030210629
:10008A00031D492803302006031D4D284F308800E0
:10009A0000302106031D532804302006031D57286B
:1000AA006630880000302106031D5D2805302006D1
:0E00BA00031D63286D308800A001A10108001D
:1000C80083120313A001A101A201A3018316031740
:1000D8008901880103138801831288018B170B1784
:1000E80083168C1483121214121492151216921677
:1000F800121712156430910000302306031D86285C
:1001080028302206031D8E282D20A201A301A00A53
:080118000319A10A80288F28B9
:04400E00F22F000786
:00000001FF
