:02000000662870
:10000800FF00030E8301A6000A08A7008A010C1C42
:100018001528A20A0319A30A96308E0096308F007D
:100028000C1027088A00260E8300FF0E7F0E090099
:0E0038008312031325088A00240882000800A2
:100046001C208A110A128000840AA40A0319A50A30
:08005600F003031D232808003C
:10005E000030831203132106031D372801302006BA
:10006E00031D3B280630880000302106031D412861
:10007E0002302006031D45285B3088000030210623
:10008E00031D4B2803302006031D4F284F308800D8
:10009E0000302106031D552804302006031D592863
:1000AE006630880000302106031D5F2805302006CB
:0E00BE00031D65286D308800A001A101080017
:1000CC0083120313A001A101A201A301831603173C
:1000DC008901880103138801831288018B170B1780
:1000EC0083160C1483129010101690161015101401
:1000FC0096308E0096308F0000302306031D882822
:10010C0005302206031D9028A00A0319A10A2F20EE
:08011C00A201A3018228912831
:04400E00F22F000786
:00000001FF
