:02000000642872
:10000800FF00030E8301A7000A08A6008A010B1D42
:100018001328A20A0319A30AAF3081000B1126087E
:0C0028008A00270E8300FF0E7F0E0900E7
:0E0034008312031325088A00240882000800A6
:100042001A208A110A128000840AA40A0319A50A36
:08005200F003031D2128080042
:10005A000030831203132106031D352801302006C0
:10006A00031D39280630880000302106031D3F2869
:10007A0002302006031D43285B3088000030210629
:10008A00031D492803302006031D4D284F308800E0
:10009A0000302106031D532804302006031D57286B
:1000AA006630880000302106031D5D2805302006D1
:0E00BA00031D63286D308800A001A10108001D
:1000C80083120313A001A101A201A3018316031740
:1000D8008901880103138801831288018B178B1605
:1000E800831681128111011481140115AF30831216
:1000F800810000302306031D83280F302206031DCC
:100108008B282D20A201A301A00A0319A10A7D288A
:020118008C2831
:04400E00F22F000786
:00000001FF
